:020000040000FA
:08000000803102288731EC2F4A
:100D820051019101930192010800113041019D002E
:100D920090309E0008009030460196003E3095004B
:100DA2004030940008000130450190008F0191010C
:100DB2007A088D008C014E010D13803045018E00A2
:100DC2000800730840012102031DE92E7208200267
:100DD200031CEC2EED2EFA2E71082102031DF32EB8
:100DE20070082002031CF62EF72EFA2E99161A14FA
:100DF200092F71087302031D002F70087202031875
:100E0200032F042F072F99121A14092F99161A105B
:100E1200080087315F2787318631C1268731F93053
:100E2200FA000030FB008631D42687318631CC2689
:100E320087318631C626873101304001A600003055
:100E4200A7008731932787318631E2268731143014
:100E5200FC007A30890B2B2FFC0B2B2F222F803199
:100E6200022878087904031D372F382F3D2F770881
:100E7200F5007608F4005E2F78037904031D422FF3
:100E8200432F4A2F7608003EF4000130773DF500EB
:100E92005E2F023078067904031D502F512F582FF0
:100EA2007608003EF4000230773DF5005E2F7608AA
:100EB200003EF4000330773DF5000800FF304001AA
:100EC200980099019A0110309200F0309300FF309F
:100ED2009400FB307E01CE00F030C3001030B80029
:100EE200C401B9010430CF000430BA00C501D001F9
:100EF2003730BB00F030C600FF30D1003F30BC00BD
:100F0200F030C700FF30D200400112119312921646
:100F12001415141094137E013816B816C317033033
:100F220092000800113041019D009D149D189A2FD6
:100F32009B2F972F1C08FA00FB017A08F8007B0808
:100F4200F9001B08FA00FB017A08F6007B08F7009B
:100F52008731322787317508F3007408F2001530A3
:100F620041019D009D149D18B72FB82FB42F1C0866
:100F7200FA00FB017A08F8007B08F9001B08FA0066
:100F8200FB017A08F6007B08F700873132278731A8
:100F92007508F1007408F0003D3041019D009D1478
:100FA2009D18D42FD52FD12F1C08FA00FB017A08E7
:100FB200F8007B08F9001B08FA00FB017A08F6002A
:100FC2007B08F70087313227873175084001A1007D
:100FD2007408A0000800F001F101F201F301F4012C
:100FE200F501F601F701F801F9014001A001A101A3
:0E0FF200A201A301A401A501400187310A2F2D
:020000040001F9
:04000E00ED3FE73F9C
:04001400FF3FFF3F6C
:00000001FF
